{
  "_format": "hh-sol-artifact-1",
  "contractName": "ConfessionNFT",
  "sourceName": "contracts/ConfessionNFT.sol",
  "abi": [
    {
      "inputs": [],
      "stateMutability": "nonpayable",
      "type": "constructor"
    },
    {
      "inputs": [
        {
          "internalType": "address",
          "name": "sender",
          "type": "address"
        },
        {
          "internalType": "uint256",
          "name": "tokenId",
          "type": "uint256"
        },
        {
          "internalType": "address",
          "name": "owner",
          "type": "address"
        }
      ],
      "name": "ERC721IncorrectOwner",
      "type": "error"
    },
    {
      "inputs": [
        {
          "internalType": "address",
          "name": "operator",
          "type": "address"
        },
        {
          "internalType": "uint256",
          "name": "tokenId",
          "type": "uint256"
        }
      ],
      "name": "ERC721InsufficientApproval",
      "type": "error"
    },
    {
      "inputs": [
        {
          "internalType": "address",
          "name": "approver",
          "type": "address"
        }
      ],
      "name": "ERC721InvalidApprover",
      "type": "error"
    },
    {
      "inputs": [
        {
          "internalType": "address",
          "name": "operator",
          "type": "address"
        }
      ],
      "name": "ERC721InvalidOperator",
      "type": "error"
    },
    {
      "inputs": [
        {
          "internalType": "address",
          "name": "owner",
          "type": "address"
        }
      ],
      "name": "ERC721InvalidOwner",
      "type": "error"
    },
    {
      "inputs": [
        {
          "internalType": "address",
          "name": "receiver",
          "type": "address"
        }
      ],
      "name": "ERC721InvalidReceiver",
      "type": "error"
    },
    {
      "inputs": [
        {
          "internalType": "address",
          "name": "sender",
          "type": "address"
        }
      ],
      "name": "ERC721InvalidSender",
      "type": "error"
    },
    {
      "inputs": [
        {
          "internalType": "uint256",
          "name": "tokenId",
          "type": "uint256"
        }
      ],
      "name": "ERC721NonexistentToken",
      "type": "error"
    },
    {
      "anonymous": false,
      "inputs": [
        {
          "indexed": true,
          "internalType": "address",
          "name": "owner",
          "type": "address"
        },
        {
          "indexed": true,
          "internalType": "address",
          "name": "approved",
          "type": "address"
        },
        {
          "indexed": true,
          "internalType": "uint256",
          "name": "tokenId",
          "type": "uint256"
        }
      ],
      "name": "Approval",
      "type": "event"
    },
    {
      "anonymous": false,
      "inputs": [
        {
          "indexed": true,
          "internalType": "address",
          "name": "owner",
          "type": "address"
        },
        {
          "indexed": true,
          "internalType": "address",
          "name": "operator",
          "type": "address"
        },
        {
          "indexed": false,
          "internalType": "bool",
          "name": "approved",
          "type": "bool"
        }
      ],
      "name": "ApprovalForAll",
      "type": "event"
    },
    {
      "anonymous": false,
      "inputs": [
        {
          "indexed": false,
          "internalType": "uint256",
          "name": "_fromTokenId",
          "type": "uint256"
        },
        {
          "indexed": false,
          "internalType": "uint256",
          "name": "_toTokenId",
          "type": "uint256"
        }
      ],
      "name": "BatchMetadataUpdate",
      "type": "event"
    },
    {
      "anonymous": false,
      "inputs": [
        {
          "indexed": false,
          "internalType": "uint256",
          "name": "_tokenId",
          "type": "uint256"
        }
      ],
      "name": "MetadataUpdate",
      "type": "event"
    },
    {
      "anonymous": false,
      "inputs": [
        {
          "indexed": true,
          "internalType": "address",
          "name": "owner",
          "type": "address"
        },
        {
          "indexed": true,
          "internalType": "uint256",
          "name": "tokenId",
          "type": "uint256"
        },
        {
          "indexed": false,
          "internalType": "string",
          "name": "tokenUri",
          "type": "string"
        }
      ],
      "name": "NFTMinted",
      "type": "event"
    },
    {
      "anonymous": false,
      "inputs": [
        {
          "indexed": true,
          "internalType": "address",
          "name": "from",
          "type": "address"
        },
        {
          "indexed": true,
          "internalType": "address",
          "name": "to",
          "type": "address"
        },
        {
          "indexed": true,
          "internalType": "uint256",
          "name": "tokenId",
          "type": "uint256"
        }
      ],
      "name": "Transfer",
      "type": "event"
    },
    {
      "inputs": [
        {
          "internalType": "address",
          "name": "to",
          "type": "address"
        },
        {
          "internalType": "uint256",
          "name": "tokenId",
          "type": "uint256"
        }
      ],
      "name": "approve",
      "outputs": [],
      "stateMutability": "nonpayable",
      "type": "function"
    },
    {
      "inputs": [
        {
          "internalType": "address",
          "name": "owner",
          "type": "address"
        }
      ],
      "name": "balanceOf",
      "outputs": [
        {
          "internalType": "uint256",
          "name": "",
          "type": "uint256"
        }
      ],
      "stateMutability": "view",
      "type": "function"
    },
    {
      "inputs": [
        {
          "internalType": "uint256",
          "name": "tokenId",
          "type": "uint256"
        }
      ],
      "name": "getApproved",
      "outputs": [
        {
          "internalType": "address",
          "name": "",
          "type": "address"
        }
      ],
      "stateMutability": "view",
      "type": "function"
    },
    {
      "inputs": [
        {
          "internalType": "address",
          "name": "owner",
          "type": "address"
        },
        {
          "internalType": "address",
          "name": "operator",
          "type": "address"
        }
      ],
      "name": "isApprovedForAll",
      "outputs": [
        {
          "internalType": "bool",
          "name": "",
          "type": "bool"
        }
      ],
      "stateMutability": "view",
      "type": "function"
    },
    {
      "inputs": [
        {
          "internalType": "address",
          "name": "recipient",
          "type": "address"
        },
        {
          "internalType": "string",
          "name": "confession",
          "type": "string"
        },
        {
          "internalType": "string",
          "name": "feelings",
          "type": "string"
        },
        {
          "internalType": "string",
          "name": "title",
          "type": "string"
        }
      ],
      "name": "mintConfessionNFT",
      "outputs": [
        {
          "internalType": "uint256",
          "name": "",
          "type": "uint256"
        }
      ],
      "stateMutability": "nonpayable",
      "type": "function"
    },
    {
      "inputs": [],
      "name": "name",
      "outputs": [
        {
          "internalType": "string",
          "name": "",
          "type": "string"
        }
      ],
      "stateMutability": "view",
      "type": "function"
    },
    {
      "inputs": [
        {
          "internalType": "uint256",
          "name": "tokenId",
          "type": "uint256"
        }
      ],
      "name": "ownerOf",
      "outputs": [
        {
          "internalType": "address",
          "name": "",
          "type": "address"
        }
      ],
      "stateMutability": "view",
      "type": "function"
    },
    {
      "inputs": [
        {
          "internalType": "address",
          "name": "from",
          "type": "address"
        },
        {
          "internalType": "address",
          "name": "to",
          "type": "address"
        },
        {
          "internalType": "uint256",
          "name": "tokenId",
          "type": "uint256"
        }
      ],
      "name": "safeTransferFrom",
      "outputs": [],
      "stateMutability": "nonpayable",
      "type": "function"
    },
    {
      "inputs": [
        {
          "internalType": "address",
          "name": "from",
          "type": "address"
        },
        {
          "internalType": "address",
          "name": "to",
          "type": "address"
        },
        {
          "internalType": "uint256",
          "name": "tokenId",
          "type": "uint256"
        },
        {
          "internalType": "bytes",
          "name": "data",
          "type": "bytes"
        }
      ],
      "name": "safeTransferFrom",
      "outputs": [],
      "stateMutability": "nonpayable",
      "type": "function"
    },
    {
      "inputs": [
        {
          "internalType": "address",
          "name": "operator",
          "type": "address"
        },
        {
          "internalType": "bool",
          "name": "approved",
          "type": "bool"
        }
      ],
      "name": "setApprovalForAll",
      "outputs": [],
      "stateMutability": "nonpayable",
      "type": "function"
    },
    {
      "inputs": [
        {
          "internalType": "bytes4",
          "name": "interfaceId",
          "type": "bytes4"
        }
      ],
      "name": "supportsInterface",
      "outputs": [
        {
          "internalType": "bool",
          "name": "",
          "type": "bool"
        }
      ],
      "stateMutability": "view",
      "type": "function"
    },
    {
      "inputs": [],
      "name": "symbol",
      "outputs": [
        {
          "internalType": "string",
          "name": "",
          "type": "string"
        }
      ],
      "stateMutability": "view",
      "type": "function"
    },
    {
      "inputs": [
        {
          "internalType": "uint256",
          "name": "tokenId",
          "type": "uint256"
        }
      ],
      "name": "tokenURI",
      "outputs": [
        {
          "internalType": "string",
          "name": "",
          "type": "string"
        }
      ],
      "stateMutability": "view",
      "type": "function"
    },
    {
      "inputs": [
        {
          "internalType": "address",
          "name": "from",
          "type": "address"
        },
        {
          "internalType": "address",
          "name": "to",
          "type": "address"
        },
        {
          "internalType": "uint256",
          "name": "tokenId",
          "type": "uint256"
        }
      ],
      "name": "transferFrom",
      "outputs": [],
      "stateMutability": "nonpayable",
      "type": "function"
    }
  ],
  "bytecode": "0x6080604052604051806101a0016040528061016c815260200162002fe561016c91396008908162000031919062000352565b503480156200003f57600080fd5b506040518060400160405280600d81526020017f4e4654436f6e66657373696f6e000000000000000000000000000000000000008152506040518060400160405280600381526020017f4e434e00000000000000000000000000000000000000000000000000000000008152508160009081620000bd919062000352565b508060019081620000cf919062000352565b50505062000439565b600081519050919050565b7f4e487b7100000000000000000000000000000000000000000000000000000000600052604160045260246000fd5b7f4e487b7100000000000000000000000000000000000000000000000000000000600052602260045260246000fd5b600060028204905060018216806200015a57607f821691505b60208210810362000170576200016f62000112565b5b50919050565b60008190508160005260206000209050919050565b60006020601f8301049050919050565b600082821b905092915050565b600060088302620001da7fffffffffffffffffffffffffffffffffffffffffffffffffffffffffffffffff826200019b565b620001e686836200019b565b95508019841693508086168417925050509392505050565b6000819050919050565b6000819050919050565b6000620002336200022d6200022784620001fe565b62000208565b620001fe565b9050919050565b6000819050919050565b6200024f8362000212565b620002676200025e826200023a565b848454620001a8565b825550505050565b600090565b6200027e6200026f565b6200028b81848462000244565b505050565b5b81811015620002b357620002a760008262000274565b60018101905062000291565b5050565b601f8211156200030257620002cc8162000176565b620002d7846200018b565b81016020851015620002e7578190505b620002ff620002f6856200018b565b83018262000290565b50505b505050565b600082821c905092915050565b6000620003276000198460080262000307565b1980831691505092915050565b600062000342838362000314565b9150826002028217905092915050565b6200035d82620000d8565b67ffffffffffffffff811115620003795762000378620000e3565b5b62000385825462000141565b62000392828285620002b7565b600060209050601f831160018114620003ca5760008415620003b5578287015190505b620003c1858262000334565b86555062000431565b601f198416620003da8662000176565b60005b828110156200040457848901518255600182019150602085019450602081019050620003dd565b8683101562000424578489015162000420601f89168262000314565b8355505b6001600288020188555050505b505050505050565b612b9c80620004496000396000f3fe608060405234801561001057600080fd5b50600436106100ea5760003560e01c80636352211e1161008c578063a22cb46511610066578063a22cb4651461026f578063b88d4fde1461028b578063c87b56dd146102a7578063e985e9c5146102d7576100ea565b80636352211e146101f157806370a082311461022157806395d89b4114610251576100ea565b8063095ea7b3116100c8578063095ea7b31461016d57806323b872dd1461018957806342842e0e146101a55780635dc1c2d5146101c1576100ea565b806301ffc9a7146100ef57806306fdde031461011f578063081812fc1461013d575b600080fd5b61010960048036038101906101049190611a9f565b610307565b6040516101169190611ae7565b60405180910390f35b610127610368565b6040516101349190611b92565b60405180910390f35b61015760048036038101906101529190611bea565b6103fa565b6040516101649190611c58565b60405180910390f35b61018760048036038101906101829190611c9f565b610416565b005b6101a3600480360381019061019e9190611cdf565b61042c565b005b6101bf60048036038101906101ba9190611cdf565b61052e565b005b6101db60048036038101906101d69190611e67565b61054e565b6040516101e89190611f31565b60405180910390f35b61020b60048036038101906102069190611bea565b610667565b6040516102189190611c58565b60405180910390f35b61023b60048036038101906102369190611f4c565b610679565b6040516102489190611f31565b60405180910390f35b610259610733565b6040516102669190611b92565b60405180910390f35b61028960048036038101906102849190611fa5565b6107c5565b005b6102a560048036038101906102a09190612086565b6107db565b005b6102c160048036038101906102bc9190611bea565b6107f8565b6040516102ce9190611b92565b60405180910390f35b6102f160048036038101906102ec9190612109565b61090b565b6040516102fe9190611ae7565b60405180910390f35b6000634906490660e01b7bffffffffffffffffffffffffffffffffffffffffffffffffffffffff1916827bffffffffffffffffffffffffffffffffffffffffffffffffffffffff1916148061036157506103608261099f565b5b9050919050565b60606000805461037790612178565b80601f01602080910402602001604051908101604052809291908181526020018280546103a390612178565b80156103f05780601f106103c5576101008083540402835291602001916103f0565b820191906000526020600020905b8154815290600101906020018083116103d357829003601f168201915b5050505050905090565b600061040582610a81565b5061040f82610b09565b9050919050565b6104288282610423610b46565b610b4e565b5050565b600073ffffffffffffffffffffffffffffffffffffffff168273ffffffffffffffffffffffffffffffffffffffff160361049e5760006040517f64a0ae920000000000000000000000000000000000000000000000000000000081526004016104959190611c58565b60405180910390fd5b60006104b283836104ad610b46565b610b60565b90508373ffffffffffffffffffffffffffffffffffffffff168173ffffffffffffffffffffffffffffffffffffffff1614610528578382826040517f64283d7b00000000000000000000000000000000000000000000000000000000815260040161051f939291906121a9565b60405180910390fd5b50505050565b610549838383604051806020016040528060008152506107db565b505050565b6000806007549050600060088460405160200161056c929190612300565b604051602081830303815290604052905060006105b585888861058e86610d7a565b6040516020016105a1949392919061258f565b604051602081830303815290604052610d7a565b90506000816040516020016105ca9190612666565b60405160208183030381529060405290506001600760008282546105ee91906126b7565b925050819055506105ff8985610eec565b6106098482610f0a565b838973ffffffffffffffffffffffffffffffffffffffff167fd35bb95e09c04b219e35047ce7b7b300e3384264ef84a40456943dbc0fc17c14836040516106509190611b92565b60405180910390a383945050505050949350505050565b600061067282610a81565b9050919050565b60008073ffffffffffffffffffffffffffffffffffffffff168273ffffffffffffffffffffffffffffffffffffffff16036106ec5760006040517f89c62b640000000000000000000000000000000000000000000000000000000081526004016106e39190611c58565b60405180910390fd5b600360008373ffffffffffffffffffffffffffffffffffffffff1673ffffffffffffffffffffffffffffffffffffffff168152602001908152602001600020549050919050565b60606001805461074290612178565b80601f016020809104026020016040519081016040528092919081815260200182805461076e90612178565b80156107bb5780601f10610790576101008083540402835291602001916107bb565b820191906000526020600020905b81548152906001019060200180831161079e57829003601f168201915b5050505050905090565b6107d76107d0610b46565b8383610f66565b5050565b6107e684848461042c565b6107f2848484846110d5565b50505050565b606061080382610a81565b50600060066000848152602001908152602001600020805461082490612178565b80601f016020809104026020016040519081016040528092919081815260200182805461085090612178565b801561089d5780601f106108725761010080835404028352916020019161089d565b820191906000526020600020905b81548152906001019060200180831161088057829003601f168201915b5050505050905060006108ae61128c565b905060008151036108c3578192505050610906565b6000825111156108f85780826040516020016108e09291906126eb565b60405160208183030381529060405292505050610906565b610901846112a3565b925050505b919050565b6000600560008473ffffffffffffffffffffffffffffffffffffffff1673ffffffffffffffffffffffffffffffffffffffff16815260200190815260200160002060008373ffffffffffffffffffffffffffffffffffffffff1673ffffffffffffffffffffffffffffffffffffffff16815260200190815260200160002060009054906101000a900460ff16905092915050565b60007f80ac58cd000000000000000000000000000000000000000000000000000000007bffffffffffffffffffffffffffffffffffffffffffffffffffffffff1916827bffffffffffffffffffffffffffffffffffffffffffffffffffffffff19161480610a6a57507f5b5e139f000000000000000000000000000000000000000000000000000000007bffffffffffffffffffffffffffffffffffffffffffffffffffffffff1916827bffffffffffffffffffffffffffffffffffffffffffffffffffffffff1916145b80610a7a5750610a798261130c565b5b9050919050565b600080610a8d83611376565b9050600073ffffffffffffffffffffffffffffffffffffffff168173ffffffffffffffffffffffffffffffffffffffff1603610b0057826040517f7e273289000000000000000000000000000000000000000000000000000000008152600401610af79190611f31565b60405180910390fd5b80915050919050565b60006004600083815260200190815260200160002060009054906101000a900473ffffffffffffffffffffffffffffffffffffffff169050919050565b600033905090565b610b5b83838360016113b3565b505050565b600080610b6c84611376565b9050600073ffffffffffffffffffffffffffffffffffffffff168373ffffffffffffffffffffffffffffffffffffffff1614610bae57610bad818486611578565b5b600073ffffffffffffffffffffffffffffffffffffffff168173ffffffffffffffffffffffffffffffffffffffff1614610c3f57610bf06000856000806113b3565b6001600360008373ffffffffffffffffffffffffffffffffffffffff1673ffffffffffffffffffffffffffffffffffffffff168152602001908152602001600020600082825403925050819055505b600073ffffffffffffffffffffffffffffffffffffffff168573ffffffffffffffffffffffffffffffffffffffff1614610cc2576001600360008773ffffffffffffffffffffffffffffffffffffffff1673ffffffffffffffffffffffffffffffffffffffff168152602001908152602001600020600082825401925050819055505b846002600086815260200190815260200160002060006101000a81548173ffffffffffffffffffffffffffffffffffffffff021916908373ffffffffffffffffffffffffffffffffffffffff160217905550838573ffffffffffffffffffffffffffffffffffffffff168273ffffffffffffffffffffffffffffffffffffffff167fddf252ad1be2c89b69c2b068fc378daa952ba7f163c4a11628f55a4df523b3ef60405160405180910390a4809150509392505050565b60606000825103610d9c57604051806020016040528060008152509050610ee7565b6000604051806060016040528060408152602001612b276040913990506000600360028551610dcb91906126b7565b610dd5919061273e565b6004610de1919061276f565b67ffffffffffffffff811115610dfa57610df9611d3c565b5b6040519080825280601f01601f191660200182016040528015610e2c5781602001600182028036833780820191505090505b50905060018201602082018586518701602081018051600082525b82841015610ea2576003840193508351603f8160121c168701518653600186019550603f81600c1c168701518653600186019550603f8160061c168701518653600186019550603f8116870151865360018601955050610e47565b80825260038a510660018114610ebf5760028114610ed257610eda565b603d6001870353603d6002870353610eda565b603d60018703535b5050505050505080925050505b919050565b610f0682826040518060200160405280600081525061163c565b5050565b80600660008481526020019081526020016000209081610f2a9190612948565b507ff8e1a15aba9398e019f0b49df1a4fde98ee17ae345cb5f6b5e2c27f5033e8ce782604051610f5a9190611f31565b60405180910390a15050565b600073ffffffffffffffffffffffffffffffffffffffff168273ffffffffffffffffffffffffffffffffffffffff1603610fd757816040517f5b08ba18000000000000000000000000000000000000000000000000000000008152600401610fce9190611c58565b60405180910390fd5b80600560008573ffffffffffffffffffffffffffffffffffffffff1673ffffffffffffffffffffffffffffffffffffffff16815260200190815260200160002060008473ffffffffffffffffffffffffffffffffffffffff1673ffffffffffffffffffffffffffffffffffffffff16815260200190815260200160002060006101000a81548160ff0219169083151502179055508173ffffffffffffffffffffffffffffffffffffffff168373ffffffffffffffffffffffffffffffffffffffff167f17307eab39ab6107e8899845ad3d59bd9653f200f220920489ca2b5937696c31836040516110c89190611ae7565b60405180910390a3505050565b60008373ffffffffffffffffffffffffffffffffffffffff163b1115611286578273ffffffffffffffffffffffffffffffffffffffff1663150b7a02611119610b46565b8685856040518563ffffffff1660e01b815260040161113b9493929190612a6f565b6020604051808303816000875af192505050801561117757506040513d601f19601f820116820180604052508101906111749190612ad0565b60015b6111fb573d80600081146111a7576040519150601f19603f3d011682016040523d82523d6000602084013e6111ac565b606091505b5060008151036111f357836040517f64a0ae920000000000000000000000000000000000000000000000000000000081526004016111ea9190611c58565b60405180910390fd5b805181602001fd5b63150b7a0260e01b7bffffffffffffffffffffffffffffffffffffffffffffffffffffffff1916817bffffffffffffffffffffffffffffffffffffffffffffffffffffffff19161461128457836040517f64a0ae9200000000000000000000000000000000000000000000000000000000815260040161127b9190611c58565b60405180910390fd5b505b50505050565b606060405180602001604052806000815250905090565b60606112ae82610a81565b5060006112b961128c565b905060008151116112d95760405180602001604052806000815250611304565b806112e384611658565b6040516020016112f49291906126eb565b6040516020818303038152906040525b915050919050565b60007f01ffc9a7000000000000000000000000000000000000000000000000000000007bffffffffffffffffffffffffffffffffffffffffffffffffffffffff1916827bffffffffffffffffffffffffffffffffffffffffffffffffffffffff1916149050919050565b60006002600083815260200190815260200160002060009054906101000a900473ffffffffffffffffffffffffffffffffffffffff169050919050565b80806113ec5750600073ffffffffffffffffffffffffffffffffffffffff168273ffffffffffffffffffffffffffffffffffffffff1614155b156115205760006113fc84610a81565b9050600073ffffffffffffffffffffffffffffffffffffffff168373ffffffffffffffffffffffffffffffffffffffff161415801561146757508273ffffffffffffffffffffffffffffffffffffffff168173ffffffffffffffffffffffffffffffffffffffff1614155b801561147a5750611478818461090b565b155b156114bc57826040517fa9fbf51f0000000000000000000000000000000000000000000000000000000081526004016114b39190611c58565b60405180910390fd5b811561151e57838573ffffffffffffffffffffffffffffffffffffffff168273ffffffffffffffffffffffffffffffffffffffff167f8c5be1e5ebec7d5bd14f71427d1e84f3dd0314c0f7b2291e5b200ac8c7c3b92560405160405180910390a45b505b836004600085815260200190815260200160002060006101000a81548173ffffffffffffffffffffffffffffffffffffffff021916908373ffffffffffffffffffffffffffffffffffffffff16021790555050505050565b611583838383611726565b61163757600073ffffffffffffffffffffffffffffffffffffffff168373ffffffffffffffffffffffffffffffffffffffff16036115f857806040517f7e2732890000000000000000000000000000000000000000000000000000000081526004016115ef9190611f31565b60405180910390fd5b81816040517f177e802f00000000000000000000000000000000000000000000000000000000815260040161162e929190612afd565b60405180910390fd5b505050565b61164683836117e7565b61165360008484846110d5565b505050565b606060006001611667846118e0565b01905060008167ffffffffffffffff81111561168657611685611d3c565b5b6040519080825280601f01601f1916602001820160405280156116b85781602001600182028036833780820191505090505b509050600082602001820190505b60011561171b578080600190039150507f3031323334353637383961626364656600000000000000000000000000000000600a86061a8153600a858161170f5761170e61270f565b5b049450600085036116c6575b819350505050919050565b60008073ffffffffffffffffffffffffffffffffffffffff168373ffffffffffffffffffffffffffffffffffffffff16141580156117de57508273ffffffffffffffffffffffffffffffffffffffff168473ffffffffffffffffffffffffffffffffffffffff16148061179f575061179e848461090b565b5b806117dd57508273ffffffffffffffffffffffffffffffffffffffff166117c583610b09565b73ffffffffffffffffffffffffffffffffffffffff16145b5b90509392505050565b600073ffffffffffffffffffffffffffffffffffffffff168273ffffffffffffffffffffffffffffffffffffffff16036118595760006040517f64a0ae920000000000000000000000000000000000000000000000000000000081526004016118509190611c58565b60405180910390fd5b600061186783836000610b60565b9050600073ffffffffffffffffffffffffffffffffffffffff168173ffffffffffffffffffffffffffffffffffffffff16146118db5760006040517f73c6ac6e0000000000000000000000000000000000000000000000000000000081526004016118d29190611c58565b60405180910390fd5b505050565b600080600090507a184f03e93ff9f4daa797ed6e38ed64bf6a1f010000000000000000831061193e577a184f03e93ff9f4daa797ed6e38ed64bf6a1f01000000000000000083816119345761193361270f565b5b0492506040810190505b6d04ee2d6d415b85acef8100000000831061197b576d04ee2d6d415b85acef810000000083816119715761197061270f565b5b0492506020810190505b662386f26fc1000083106119aa57662386f26fc1000083816119a05761199f61270f565b5b0492506010810190505b6305f5e10083106119d3576305f5e10083816119c9576119c861270f565b5b0492506008810190505b61271083106119f85761271083816119ee576119ed61270f565b5b0492506004810190505b60648310611a1b5760648381611a1157611a1061270f565b5b0492506002810190505b600a8310611a2a576001810190505b80915050919050565b6000604051905090565b600080fd5b600080fd5b60007fffffffff0000000000000000000000000000000000000000000000000000000082169050919050565b611a7c81611a47565b8114611a8757600080fd5b50565b600081359050611a9981611a73565b92915050565b600060208284031215611ab557611ab4611a3d565b5b6000611ac384828501611a8a565b91505092915050565b60008115159050919050565b611ae181611acc565b82525050565b6000602082019050611afc6000830184611ad8565b92915050565b600081519050919050565b600082825260208201905092915050565b60005b83811015611b3c578082015181840152602081019050611b21565b60008484015250505050565b6000601f19601f8301169050919050565b6000611b6482611b02565b611b6e8185611b0d565b9350611b7e818560208601611b1e565b611b8781611b48565b840191505092915050565b60006020820190508181036000830152611bac8184611b59565b905092915050565b6000819050919050565b611bc781611bb4565b8114611bd257600080fd5b50565b600081359050611be481611bbe565b92915050565b600060208284031215611c0057611bff611a3d565b5b6000611c0e84828501611bd5565b91505092915050565b600073ffffffffffffffffffffffffffffffffffffffff82169050919050565b6000611c4282611c17565b9050919050565b611c5281611c37565b82525050565b6000602082019050611c6d6000830184611c49565b92915050565b611c7c81611c37565b8114611c8757600080fd5b50565b600081359050611c9981611c73565b92915050565b60008060408385031215611cb657611cb5611a3d565b5b6000611cc485828601611c8a565b9250506020611cd585828601611bd5565b9150509250929050565b600080600060608486031215611cf857611cf7611a3d565b5b6000611d0686828701611c8a565b9350506020611d1786828701611c8a565b9250506040611d2886828701611bd5565b9150509250925092565b600080fd5b600080fd5b7f4e487b7100000000000000000000000000000000000000000000000000000000600052604160045260246000fd5b611d7482611b48565b810181811067ffffffffffffffff82111715611d9357611d92611d3c565b5b80604052505050565b6000611da6611a33565b9050611db28282611d6b565b919050565b600067ffffffffffffffff821115611dd257611dd1611d3c565b5b611ddb82611b48565b9050602081019050919050565b82818337600083830152505050565b6000611e0a611e0584611db7565b611d9c565b905082815260208101848484011115611e2657611e25611d37565b5b611e31848285611de8565b509392505050565b600082601f830112611e4e57611e4d611d32565b5b8135611e5e848260208601611df7565b91505092915050565b60008060008060808587031215611e8157611e80611a3d565b5b6000611e8f87828801611c8a565b945050602085013567ffffffffffffffff811115611eb057611eaf611a42565b5b611ebc87828801611e39565b935050604085013567ffffffffffffffff811115611edd57611edc611a42565b5b611ee987828801611e39565b925050606085013567ffffffffffffffff811115611f0a57611f09611a42565b5b611f1687828801611e39565b91505092959194509250565b611f2b81611bb4565b82525050565b6000602082019050611f466000830184611f22565b92915050565b600060208284031215611f6257611f61611a3d565b5b6000611f7084828501611c8a565b91505092915050565b611f8281611acc565b8114611f8d57600080fd5b50565b600081359050611f9f81611f79565b92915050565b60008060408385031215611fbc57611fbb611a3d565b5b6000611fca85828601611c8a565b9250506020611fdb85828601611f90565b9150509250929050565b600067ffffffffffffffff82111561200057611fff611d3c565b5b61200982611b48565b9050602081019050919050565b600061202961202484611fe5565b611d9c565b90508281526020810184848401111561204557612044611d37565b5b612050848285611de8565b509392505050565b600082601f83011261206d5761206c611d32565b5b813561207d848260208601612016565b91505092915050565b600080600080608085870312156120a05761209f611a3d565b5b60006120ae87828801611c8a565b94505060206120bf87828801611c8a565b93505060406120d087828801611bd5565b925050606085013567ffffffffffffffff8111156120f1576120f0611a42565b5b6120fd87828801612058565b91505092959194509250565b600080604083850312156121205761211f611a3d565b5b600061212e85828601611c8a565b925050602061213f85828601611c8a565b9150509250929050565b7f4e487b7100000000000000000000000000000000000000000000000000000000600052602260045260246000fd5b6000600282049050600182168061219057607f821691505b6020821081036121a3576121a2612149565b5b50919050565b60006060820190506121be6000830186611c49565b6121cb6020830185611f22565b6121d86040830184611c49565b949350505050565b600081905092915050565b60008190508160005260206000209050919050565b6000815461220d81612178565b61221781866121e0565b9450600182166000811461223257600181146122475761227a565b60ff198316865281151582028601935061227a565b612250856121eb565b60005b8381101561227257815481890152600182019150602081019050612253565b838801955050505b50505092915050565b600061228e82611b02565b61229881856121e0565b93506122a8818560208601611b1e565b80840191505092915050565b7f3c2f746578743e3c2f7376673e00000000000000000000000000000000000000600082015250565b60006122ea600d836121e0565b91506122f5826122b4565b600d82019050919050565b600061230c8285612200565b91506123188284612283565b9150612323826122dd565b91508190509392505050565b7f7b226e616d65223a202220000000000000000000000000000000000000000000600082015250565b6000612365600b836121e0565b91506123708261232f565b600b82019050919050565b7f20222c20226465736372697074696f6e223a2022200000000000000000000000600082015250565b60006123b16015836121e0565b91506123bc8261237b565b601582019050919050565b7f222c202261747472696275746573223a205b0000000000000000000000000000600082015250565b60006123fd6012836121e0565b9150612408826123c7565b601282019050919050565b7f7b2274726169745f74797065223a20224665656c696e6773222c202276616c7560008201527f65223a2022000000000000000000000000000000000000000000000000000000602082015250565b600061246f6025836121e0565b915061247a82612413565b602582019050919050565b7f227d5d2c20000000000000000000000000000000000000000000000000000000600082015250565b60006124bb6005836121e0565b91506124c682612485565b600582019050919050565b7f22696d616765223a2022646174613a696d6167652f7376672b786d6c3b62617360008201527f6536342c00000000000000000000000000000000000000000000000000000000602082015250565b600061252d6024836121e0565b9150612538826124d1565b602482019050919050565b7f227d000000000000000000000000000000000000000000000000000000000000600082015250565b60006125796002836121e0565b915061258482612543565b600282019050919050565b600061259a82612358565b91506125a68287612283565b91506125b1826123a4565b91506125bd8286612283565b91506125c8826123f0565b91506125d382612462565b91506125df8285612283565b91506125ea826124ae565b91506125f582612520565b91506126018284612283565b915061260c8261256c565b915081905095945050505050565b7f646174613a6170706c69636174696f6e2f6a736f6e3b6261736536342c000000600082015250565b6000612650601d836121e0565b915061265b8261261a565b601d82019050919050565b600061267182612643565b915061267d8284612283565b915081905092915050565b7f4e487b7100000000000000000000000000000000000000000000000000000000600052601160045260246000fd5b60006126c282611bb4565b91506126cd83611bb4565b92508282019050808211156126e5576126e4612688565b5b92915050565b60006126f78285612283565b91506127038284612283565b91508190509392505050565b7f4e487b7100000000000000000000000000000000000000000000000000000000600052601260045260246000fd5b600061274982611bb4565b915061275483611bb4565b9250826127645761276361270f565b5b828204905092915050565b600061277a82611bb4565b915061278583611bb4565b925082820261279381611bb4565b915082820484148315176127aa576127a9612688565b5b5092915050565b60006020601f8301049050919050565b600082821b905092915050565b6000600883026127fe7fffffffffffffffffffffffffffffffffffffffffffffffffffffffffffffffff826127c1565b61280886836127c1565b95508019841693508086168417925050509392505050565b6000819050919050565b600061284561284061283b84611bb4565b612820565b611bb4565b9050919050565b6000819050919050565b61285f8361282a565b61287361286b8261284c565b8484546127ce565b825550505050565b600090565b61288861287b565b612893818484612856565b505050565b5b818110156128b7576128ac600082612880565b600181019050612899565b5050565b601f8211156128fc576128cd816121eb565b6128d6846127b1565b810160208510156128e5578190505b6128f96128f1856127b1565b830182612898565b50505b505050565b600082821c905092915050565b600061291f60001984600802612901565b1980831691505092915050565b6000612938838361290e565b9150826002028217905092915050565b61295182611b02565b67ffffffffffffffff81111561296a57612969611d3c565b5b6129748254612178565b61297f8282856128bb565b600060209050601f8311600181146129b257600084156129a0578287015190505b6129aa858261292c565b865550612a12565b601f1984166129c0866121eb565b60005b828110156129e8578489015182556001820191506020850194506020810190506129c3565b86831015612a055784890151612a01601f89168261290e565b8355505b6001600288020188555050505b505050505050565b600081519050919050565b600082825260208201905092915050565b6000612a4182612a1a565b612a4b8185612a25565b9350612a5b818560208601611b1e565b612a6481611b48565b840191505092915050565b6000608082019050612a846000830187611c49565b612a916020830186611c49565b612a9e6040830185611f22565b8181036060830152612ab08184612a36565b905095945050505050565b600081519050612aca81611a73565b92915050565b600060208284031215612ae657612ae5611a3d565b5b6000612af484828501612abb565b91505092915050565b6000604082019050612b126000830185611c49565b612b1f6020830184611f22565b939250505056fe4142434445464748494a4b4c4d4e4f505152535455565758595a6162636465666768696a6b6c6d6e6f707172737475767778797a303132333435363738392b2fa2646970667358221220768e6e9bfd081c7724a37b4dae5f03672b438a4868d7854a01b0ab091f9af02c64736f6c634300081800333c73766720786d6c6e733d27687474703a2f2f7777772e77332e6f72672f323030302f737667272076696577426f783d27302030203335302033353027207374796c653d276261636b67726f756e643a206c696e6561722d6772616469656e7428746f20626f74746f6d2c20233865386338622c202333383337333629273e3c646566733e3c7374796c653e2e62617365207b2066696c6c3a20233030303030303b20666f6e742d66616d696c793a20417269616c2c2073616e732d73657269663b20666f6e742d73697a653a20323470783b207d3c2f7374796c653e3c2f646566733e3c726563742077696474683d273130302527206865696768743d2731303025272066696c6c3d2775726c2823677261643129272f3e3c7465787420783d273530252720793d273530252720636c6173733d27626173652720646f6d696e616e742d626173656c696e653d276d6964646c652720746578742d616e63686f723d276d6964646c65273e",
  "linkReferences": {},
  "deployedLinkReferences": {}
}